{
  "contractName": "SolnSquareVerifier",
  "abi": [
    {
      "inputs": [
        {
          "internalType": "address",
          "name": "verifierAddress",
          "type": "address"
        }
      ],
      "stateMutability": "nonpayable",
      "type": "constructor"
    },
    {
      "anonymous": false,
      "inputs": [
        {
          "indexed": true,
          "internalType": "address",
          "name": "owner",
          "type": "address"
        },
        {
          "indexed": true,
          "internalType": "address",
          "name": "approved",
          "type": "address"
        },
        {
          "indexed": true,
          "internalType": "uint256",
          "name": "tokenId",
          "type": "uint256"
        }
      ],
      "name": "Approval",
      "type": "event"
    },
    {
      "anonymous": false,
      "inputs": [
        {
          "indexed": true,
          "internalType": "address",
          "name": "owner",
          "type": "address"
        },
        {
          "indexed": true,
          "internalType": "address",
          "name": "operator",
          "type": "address"
        },
        {
          "indexed": false,
          "internalType": "bool",
          "name": "approved",
          "type": "bool"
        }
      ],
      "name": "ApprovalForAll",
      "type": "event"
    },
    {
      "anonymous": false,
      "inputs": [
        {
          "indexed": true,
          "internalType": "address",
          "name": "previousOwner",
          "type": "address"
        },
        {
          "indexed": true,
          "internalType": "address",
          "name": "newOwner",
          "type": "address"
        }
      ],
      "name": "OwnershipTransferred",
      "type": "event"
    },
    {
      "anonymous": false,
      "inputs": [
        {
          "indexed": false,
          "internalType": "address",
          "name": "account",
          "type": "address"
        }
      ],
      "name": "Paused",
      "type": "event"
    },
    {
      "anonymous": false,
      "inputs": [
        {
          "indexed": false,
          "internalType": "uint256",
          "name": "slnIndex",
          "type": "uint256"
        },
        {
          "indexed": true,
          "internalType": "address",
          "name": "slnAddress",
          "type": "address"
        }
      ],
      "name": "SolutionAdded",
      "type": "event"
    },
    {
      "anonymous": false,
      "inputs": [
        {
          "indexed": true,
          "internalType": "address",
          "name": "from",
          "type": "address"
        },
        {
          "indexed": true,
          "internalType": "address",
          "name": "to",
          "type": "address"
        },
        {
          "indexed": true,
          "internalType": "uint256",
          "name": "tokenId",
          "type": "uint256"
        }
      ],
      "name": "Transfer",
      "type": "event"
    },
    {
      "anonymous": false,
      "inputs": [
        {
          "indexed": false,
          "internalType": "address",
          "name": "account",
          "type": "address"
        }
      ],
      "name": "Unpaused",
      "type": "event"
    },
    {
      "inputs": [
        {
          "internalType": "bytes32",
          "name": "_myid",
          "type": "bytes32"
        },
        {
          "internalType": "string",
          "name": "_result",
          "type": "string"
        }
      ],
      "name": "__callback",
      "outputs": [],
      "stateMutability": "nonpayable",
      "type": "function"
    },
    {
      "inputs": [
        {
          "internalType": "bytes32",
          "name": "_myid",
          "type": "bytes32"
        },
        {
          "internalType": "string",
          "name": "_result",
          "type": "string"
        },
        {
          "internalType": "bytes",
          "name": "_proof",
          "type": "bytes"
        }
      ],
      "name": "__callback",
      "outputs": [],
      "stateMutability": "nonpayable",
      "type": "function"
    },
    {
      "inputs": [
        {
          "internalType": "address",
          "name": "to",
          "type": "address"
        },
        {
          "internalType": "uint256",
          "name": "tokenId",
          "type": "uint256"
        }
      ],
      "name": "approve",
      "outputs": [],
      "stateMutability": "nonpayable",
      "type": "function"
    },
    {
      "inputs": [
        {
          "internalType": "address",
          "name": "owner",
          "type": "address"
        }
      ],
      "name": "balanceOf",
      "outputs": [
        {
          "internalType": "uint256",
          "name": "",
          "type": "uint256"
        }
      ],
      "stateMutability": "view",
      "type": "function",
      "constant": true
    },
    {
      "inputs": [
        {
          "internalType": "uint256",
          "name": "tokenId",
          "type": "uint256"
        }
      ],
      "name": "getApproved",
      "outputs": [
        {
          "internalType": "address",
          "name": "",
          "type": "address"
        }
      ],
      "stateMutability": "view",
      "type": "function",
      "constant": true
    },
    {
      "inputs": [],
      "name": "getBaseURI",
      "outputs": [
        {
          "internalType": "string",
          "name": "",
          "type": "string"
        }
      ],
      "stateMutability": "view",
      "type": "function",
      "constant": true
    },
    {
      "inputs": [],
      "name": "getName",
      "outputs": [
        {
          "internalType": "string",
          "name": "",
          "type": "string"
        }
      ],
      "stateMutability": "view",
      "type": "function",
      "constant": true
    },
    {
      "inputs": [],
      "name": "getSymbol",
      "outputs": [
        {
          "internalType": "string",
          "name": "",
          "type": "string"
        }
      ],
      "stateMutability": "view",
      "type": "function",
      "constant": true
    },
    {
      "inputs": [
        {
          "internalType": "address",
          "name": "owner",
          "type": "address"
        },
        {
          "internalType": "address",
          "name": "operator",
          "type": "address"
        }
      ],
      "name": "isApprovedForAll",
      "outputs": [
        {
          "internalType": "bool",
          "name": "",
          "type": "bool"
        }
      ],
      "stateMutability": "view",
      "type": "function",
      "constant": true
    },
    {
      "inputs": [],
      "name": "isOwner",
      "outputs": [
        {
          "internalType": "bool",
          "name": "",
          "type": "bool"
        }
      ],
      "stateMutability": "view",
      "type": "function",
      "constant": true
    },
    {
      "inputs": [
        {
          "internalType": "address",
          "name": "to",
          "type": "address"
        },
        {
          "internalType": "uint256",
          "name": "tokenId",
          "type": "uint256"
        }
      ],
      "name": "mint",
      "outputs": [
        {
          "internalType": "bool",
          "name": "",
          "type": "bool"
        }
      ],
      "stateMutability": "nonpayable",
      "type": "function"
    },
    {
      "inputs": [],
      "name": "owner",
      "outputs": [
        {
          "internalType": "address",
          "name": "",
          "type": "address"
        }
      ],
      "stateMutability": "view",
      "type": "function",
      "constant": true
    },
    {
      "inputs": [
        {
          "internalType": "uint256",
          "name": "tokenId",
          "type": "uint256"
        }
      ],
      "name": "ownerOf",
      "outputs": [
        {
          "internalType": "address",
          "name": "",
          "type": "address"
        }
      ],
      "stateMutability": "view",
      "type": "function",
      "constant": true
    },
    {
      "inputs": [],
      "name": "pause",
      "outputs": [],
      "stateMutability": "nonpayable",
      "type": "function"
    },
    {
      "inputs": [],
      "name": "paused",
      "outputs": [
        {
          "internalType": "bool",
          "name": "",
          "type": "bool"
        }
      ],
      "stateMutability": "view",
      "type": "function",
      "constant": true
    },
    {
      "inputs": [
        {
          "internalType": "address",
          "name": "from",
          "type": "address"
        },
        {
          "internalType": "address",
          "name": "to",
          "type": "address"
        },
        {
          "internalType": "uint256",
          "name": "tokenId",
          "type": "uint256"
        }
      ],
      "name": "safeTransferFrom",
      "outputs": [],
      "stateMutability": "nonpayable",
      "type": "function"
    },
    {
      "inputs": [
        {
          "internalType": "address",
          "name": "from",
          "type": "address"
        },
        {
          "internalType": "address",
          "name": "to",
          "type": "address"
        },
        {
          "internalType": "uint256",
          "name": "tokenId",
          "type": "uint256"
        },
        {
          "internalType": "bytes",
          "name": "_data",
          "type": "bytes"
        }
      ],
      "name": "safeTransferFrom",
      "outputs": [],
      "stateMutability": "nonpayable",
      "type": "function"
    },
    {
      "inputs": [
        {
          "internalType": "address",
          "name": "to",
          "type": "address"
        },
        {
          "internalType": "bool",
          "name": "approved",
          "type": "bool"
        }
      ],
      "name": "setApprovalForAll",
      "outputs": [],
      "stateMutability": "nonpayable",
      "type": "function"
    },
    {
      "inputs": [
        {
          "internalType": "bytes4",
          "name": "interfaceId",
          "type": "bytes4"
        }
      ],
      "name": "supportsInterface",
      "outputs": [
        {
          "internalType": "bool",
          "name": "",
          "type": "bool"
        }
      ],
      "stateMutability": "view",
      "type": "function",
      "constant": true
    },
    {
      "inputs": [
        {
          "internalType": "uint256",
          "name": "index",
          "type": "uint256"
        }
      ],
      "name": "tokenByIndex",
      "outputs": [
        {
          "internalType": "uint256",
          "name": "",
          "type": "uint256"
        }
      ],
      "stateMutability": "view",
      "type": "function",
      "constant": true
    },
    {
      "inputs": [
        {
          "internalType": "address",
          "name": "owner",
          "type": "address"
        },
        {
          "internalType": "uint256",
          "name": "index",
          "type": "uint256"
        }
      ],
      "name": "tokenOfOwnerByIndex",
      "outputs": [
        {
          "internalType": "uint256",
          "name": "",
          "type": "uint256"
        }
      ],
      "stateMutability": "view",
      "type": "function",
      "constant": true
    },
    {
      "inputs": [
        {
          "internalType": "uint256",
          "name": "tokenId",
          "type": "uint256"
        }
      ],
      "name": "tokenURI",
      "outputs": [
        {
          "internalType": "string",
          "name": "",
          "type": "string"
        }
      ],
      "stateMutability": "view",
      "type": "function",
      "constant": true
    },
    {
      "inputs": [],
      "name": "totalSupply",
      "outputs": [
        {
          "internalType": "uint256",
          "name": "",
          "type": "uint256"
        }
      ],
      "stateMutability": "view",
      "type": "function",
      "constant": true
    },
    {
      "inputs": [
        {
          "internalType": "address",
          "name": "from",
          "type": "address"
        },
        {
          "internalType": "address",
          "name": "to",
          "type": "address"
        },
        {
          "internalType": "uint256",
          "name": "tokenId",
          "type": "uint256"
        }
      ],
      "name": "transferFrom",
      "outputs": [],
      "stateMutability": "nonpayable",
      "type": "function"
    },
    {
      "inputs": [
        {
          "internalType": "address",
          "name": "newOwner",
          "type": "address"
        }
      ],
      "name": "transferOwnership",
      "outputs": [],
      "stateMutability": "nonpayable",
      "type": "function"
    },
    {
      "inputs": [],
      "name": "unpause",
      "outputs": [],
      "stateMutability": "nonpayable",
      "type": "function"
    },
    {
      "inputs": [
        {
          "internalType": "uint256[2]",
          "name": "a",
          "type": "uint256[2]"
        },
        {
          "internalType": "uint256[2][2]",
          "name": "b",
          "type": "uint256[2][2]"
        },
        {
          "internalType": "uint256[2]",
          "name": "c",
          "type": "uint256[2]"
        },
        {
          "internalType": "uint256[2]",
          "name": "input",
          "type": "uint256[2]"
        }
      ],
      "name": "getVerifierKey",
      "outputs": [
        {
          "internalType": "bytes32",
          "name": "",
          "type": "bytes32"
        }
      ],
      "stateMutability": "pure",
      "type": "function",
      "constant": true
    },
    {
      "inputs": [
        {
          "internalType": "address",
          "name": "_addr",
          "type": "address"
        },
        {
          "internalType": "uint256",
          "name": "_index",
          "type": "uint256"
        },
        {
          "internalType": "bytes32",
          "name": "_key",
          "type": "bytes32"
        }
      ],
      "name": "addSolution",
      "outputs": [],
      "stateMutability": "nonpayable",
      "type": "function"
    },
    {
      "inputs": [
        {
          "internalType": "address",
          "name": "_to",
          "type": "address"
        },
        {
          "internalType": "uint256",
          "name": "_tokenId",
          "type": "uint256"
        },
        {
          "internalType": "uint256[2]",
          "name": "a",
          "type": "uint256[2]"
        },
        {
          "internalType": "uint256[2][2]",
          "name": "b",
          "type": "uint256[2][2]"
        },
        {
          "internalType": "uint256[2]",
          "name": "c",
          "type": "uint256[2]"
        },
        {
          "internalType": "uint256[2]",
          "name": "input",
          "type": "uint256[2]"
        }
      ],
      "name": "mintToken",
      "outputs": [],
      "stateMutability": "nonpayable",
      "type": "function"
    }
  ],
  "bytecode": "0x60806040523480156200001157600080fd5b506040516200497d3803806200497d833981810160405281019062000037919062000442565b6040518060400160405280600581526020017f544f544f580000000000000000000000000000000000000000000000000000008152506040518060400160405280600381526020017f544f5800000000000000000000000000000000000000000000000000000000008152506040518060600160405280603f81526020016200493e603f9139336000806101000a81548173ffffffffffffffffffffffffffffffffffffffff021916908373ffffffffffffffffffffffffffffffffffffffff16021790555060008054906101000a900473ffffffffffffffffffffffffffffffffffffffff1673ffffffffffffffffffffffffffffffffffffffff16600073ffffffffffffffffffffffffffffffffffffffff167f8be0079c531659141344cd1fd0a4f28419497f9722a3daafe3b4186f6b6457e060405160405180910390a360008060146101000a81548160ff021916908315150217905550620001aa6301ffc9a760e01b6200028860201b60201c565b620001c26380ac58cd60e01b6200028860201b60201c565b620001da63780e9d6360e01b6200028860201b60201c565b82600f9080519060200190620001f292919062000328565b5081601090805190602001906200020b92919062000328565b5080601190805190602001906200022492919062000328565b506200023d635b5e139f60e01b6200028860201b60201c565b50505080601360006101000a81548173ffffffffffffffffffffffffffffffffffffffff021916908373ffffffffffffffffffffffffffffffffffffffff16021790555050620004d9565b63ffffffff60e01b817bffffffffffffffffffffffffffffffffffffffffffffffffffffffff19161415620002bc57600080fd5b6001806000837bffffffffffffffffffffffffffffffffffffffffffffffffffffffff19167bffffffffffffffffffffffffffffffffffffffffffffffffffffffff1916815260200190815260200160002060006101000a81548160ff02191690831515021790555050565b8280546200033690620004a3565b90600052602060002090601f0160209004810192826200035a5760008555620003a6565b82601f106200037557805160ff1916838001178555620003a6565b82800160010185558215620003a6579182015b82811115620003a557825182559160200191906001019062000388565b5b509050620003b59190620003b9565b5090565b5b80821115620003d4576000816000905550600101620003ba565b5090565b600080fd5b600073ffffffffffffffffffffffffffffffffffffffff82169050919050565b60006200040a82620003dd565b9050919050565b6200041c81620003fd565b81146200042857600080fd5b50565b6000815190506200043c8162000411565b92915050565b6000602082840312156200045b576200045a620003d8565b5b60006200046b848285016200042b565b91505092915050565b7f4e487b7100000000000000000000000000000000000000000000000000000000600052602260045260246000fd5b60006002820490506001821680620004bc57607f821691505b60208210811415620004d357620004d262000474565b5b50919050565b61445580620004e96000396000f3fe608060405234801561001057600080fd5b50600436106101cf5760003560e01c80634f6ccce7116101045780638da5cb5b116100a2578063c87b56dd11610071578063c87b56dd1461051a578063ccd5835a1461054a578063e985e9c514610566578063f2fde38b14610596576101cf565b80638da5cb5b146104a65780638f32d59b146104c4578063a22cb465146104e2578063b88d4fde146104fe576101cf565b806370a08231116100de57806370a0823114610432578063714c53981461046257806374690502146104805780638456cb591461049c576101cf565b80634f6ccce7146103b45780635c975abb146103e45780636352211e14610402576101cf565b806327dc297e1161017157806338bbfa501161014b57806338bbfa50146103425780633f4ba83a1461035e57806340c10f191461036857806342842e0e14610398576101cf565b806327dc297e146102c65780632f745c59146102e2578063374f1a9714610312576101cf565b806315070401116101ad578063150704011461025057806317d7de7c1461026e57806318160ddd1461028c57806323b872dd146102aa576101cf565b806301ffc9a7146101d4578063081812fc14610204578063095ea7b314610234575b600080fd5b6101ee60048036038101906101e991906129f9565b6105b2565b6040516101fb9190612a41565b60405180910390f35b61021e60048036038101906102199190612a92565b61061a565b60405161022b9190612b00565b60405180910390f35b61024e60048036038101906102499190612b47565b61069f565b005b61025861084c565b6040516102659190612c20565b60405180910390f35b6102766108de565b6040516102839190612c20565b60405180910390f35b610294610970565b6040516102a19190612c51565b60405180910390f35b6102c460048036038101906102bf9190612c6c565b61097d565b005b6102e060048036038101906102db9190612e2a565b6109a0565b005b6102fc60048036038101906102f79190612b47565b6109fc565b6040516103099190612c51565b60405180910390f35b61032c60048036038101906103279190612fed565b610a76565b6040516103399190613065565b60405180910390f35b61035c60048036038101906103579190613121565b610aaf565b005b610366610ab4565b005b610382600480360381019061037d9190612b47565b610ba4565b60405161038f9190612a41565b60405180910390f35b6103b260048036038101906103ad9190612c6c565b610c0a565b005b6103ce60048036038101906103c99190612a92565b610c2a565b6040516103db9190612c51565b60405180910390f35b6103ec610c65565b6040516103f99190612a41565b60405180910390f35b61041c60048036038101906104179190612a92565b610c7b565b6040516104299190612b00565b60405180910390f35b61044c600480360381019061044791906131ac565b610d2d565b6040516104599190612c51565b60405180910390f35b61046a610dec565b6040516104779190612c20565b60405180910390f35b61049a600480360381019061049591906131d9565b610e7e565b005b6104a4610fe8565b005b6104ae6110da565b6040516104bb9190612b00565b60405180910390f35b6104cc611103565b6040516104d99190612a41565b60405180910390f35b6104fc60048036038101906104f79190613258565b61115a565b005b61051860048036038101906105139190613298565b611290565b005b610534600480360381019061052f9190612a92565b6112b6565b6040516105419190612c20565b60405180910390f35b610564600480360381019061055f919061331b565b6113a3565b005b610580600480360381019061057b91906133ab565b61164f565b60405161058d9190612a41565b60405180910390f35b6105b060048036038101906105ab91906131ac565b6116e3565b005b600060016000837bffffffffffffffffffffffffffffffffffffffffffffffffffffffff19167bffffffffffffffffffffffffffffffffffffffffffffffffffffffff1916815260200190815260200160002060009054906101000a900460ff169050919050565b600061062582611736565b610664576040517f08c379a000000000000000000000000000000000000000000000000000000000815260040161065b9061345d565b60405180910390fd5b6003600083815260200190815260200160002060009054906101000a900473ffffffffffffffffffffffffffffffffffffffff169050919050565b60006106aa82610c7b565b90508073ffffffffffffffffffffffffffffffffffffffff168373ffffffffffffffffffffffffffffffffffffffff16141561071b576040517f08c379a0000000000000000000000000000000000000000000000000000000008152600401610712906134ef565b60405180910390fd5b8073ffffffffffffffffffffffffffffffffffffffff163373ffffffffffffffffffffffffffffffffffffffff16148061075b575061075a813361164f565b5b61079a576040517f08c379a000000000000000000000000000000000000000000000000000000000815260040161079190613581565b60405180910390fd5b826003600084815260200190815260200160002060006101000a81548173ffffffffffffffffffffffffffffffffffffffff021916908373ffffffffffffffffffffffffffffffffffffffff160217905550818373ffffffffffffffffffffffffffffffffffffffff168273ffffffffffffffffffffffffffffffffffffffff167f8c5be1e5ebec7d5bd14f71427d1e84f3dd0314c0f7b2291e5b200ac8c7c3b92560405160405180910390a4505050565b60606010805461085b906135d0565b80601f0160208091040260200160405190810160405280929190818152602001828054610887906135d0565b80156108d45780601f106108a9576101008083540402835291602001916108d4565b820191906000526020600020905b8154815290600101906020018083116108b757829003601f168201915b5050505050905090565b6060600f80546108ed906135d0565b80601f0160208091040260200160405190810160405280929190818152602001828054610919906135d0565b80156109665780601f1061093b57610100808354040283529160200191610966565b820191906000526020600020905b81548152906001019060200180831161094957829003601f168201915b5050505050905090565b6000600880549050905090565b61098733826117a8565b61099057600080fd5b61099b83838361183d565b505050565b6109f88282600067ffffffffffffffff8111156109c0576109bf612cff565b5b6040519080825280601f01601f1916602001820160405280156109f25781602001600182028036833780820191505090505b50610aaf565b5050565b6000610a0783610d2d565b8210610a1257600080fd5b600660008473ffffffffffffffffffffffffffffffffffffffff1673ffffffffffffffffffffffffffffffffffffffff1681526020019081526020016000208281548110610a6357610a62613602565b5b9060005260206000200154905092915050565b600084848484604051602001610a8f94939291906137da565b604051602081830303815290604052805190602001209050949350505050565b505050565b610abc611103565b610afb576040517f08c379a0000000000000000000000000000000000000000000000000000000008152600401610af290613874565b60405180910390fd5b600060149054906101000a900460ff16610b4a576040517f08c379a0000000000000000000000000000000000000000000000000000000008152600401610b41906138e0565b60405180910390fd5b60008060146101000a81548160ff0219169083151502179055507f5db9ee0a495bf2e6ff9c91a7834c1ba4fdd244a5e8aa4e537bd38aeae4b073aa610b8d6110da565b604051610b9a9190612b00565b60405180910390a1565b6000610bae611103565b610bed576040517f08c379a0000000000000000000000000000000000000000000000000000000008152600401610be490613874565b60405180910390fd5b610bf78383611861565b610c0082611882565b6001905092915050565b610c2583838360405180602001604052806000815250611290565b505050565b6000610c34610970565b8210610c3f57600080fd5b60088281548110610c5357610c52613602565b5b90600052602060002001549050919050565b60008060149054906101000a900460ff16905090565b6000806002600084815260200190815260200160002060009054906101000a900473ffffffffffffffffffffffffffffffffffffffff169050600073ffffffffffffffffffffffffffffffffffffffff168173ffffffffffffffffffffffffffffffffffffffff161415610d24576040517f08c379a0000000000000000000000000000000000000000000000000000000008152600401610d1b90613972565b60405180910390fd5b80915050919050565b60008073ffffffffffffffffffffffffffffffffffffffff168273ffffffffffffffffffffffffffffffffffffffff161415610d9e576040517f08c379a0000000000000000000000000000000000000000000000000000000008152600401610d9590613a04565b60405180910390fd5b610de5600460008473ffffffffffffffffffffffffffffffffffffffff1673ffffffffffffffffffffffffffffffffffffffff168152602001908152602001600020611990565b9050919050565b606060118054610dfb906135d0565b80601f0160208091040260200160405190810160405280929190818152602001828054610e27906135d0565b8015610e745780601f10610e4957610100808354040283529160200191610e74565b820191906000526020600020905b815481529060010190602001808311610e5757829003601f168201915b5050505050905090565b600060405180604001604052808481526020018573ffffffffffffffffffffffffffffffffffffffff16815250905060148190806001815401808255809150506001900390600052602060002090600202016000909190919091506000820151816000015560208201518160010160006101000a81548173ffffffffffffffffffffffffffffffffffffffff021916908373ffffffffffffffffffffffffffffffffffffffff160217905550505080601560008481526020019081526020016000206000820151816000015560208201518160010160006101000a81548173ffffffffffffffffffffffffffffffffffffffff021916908373ffffffffffffffffffffffffffffffffffffffff1602179055509050508373ffffffffffffffffffffffffffffffffffffffff167f078793128cefb19aac38a33f9e5df39f67716907f6d747e8065545699e0b2b8d84604051610fda9190612c51565b60405180910390a250505050565b610ff0611103565b61102f576040517f08c379a000000000000000000000000000000000000000000000000000000000815260040161102690613874565b60405180910390fd5b600060149054906101000a900460ff161561107f576040517f08c379a000000000000000000000000000000000000000000000000000000000815260040161107690613a70565b60405180910390fd5b6001600060146101000a81548160ff0219169083151502179055507f62e78cea01bee320cd4e420270b5ea74000d11b0c9f74754ebdbfc544b05a2586110c36110da565b6040516110d09190612b00565b60405180910390a1565b60008060009054906101000a900473ffffffffffffffffffffffffffffffffffffffff16905090565b60008060009054906101000a900473ffffffffffffffffffffffffffffffffffffffff1673ffffffffffffffffffffffffffffffffffffffff163373ffffffffffffffffffffffffffffffffffffffff1614905090565b3373ffffffffffffffffffffffffffffffffffffffff168273ffffffffffffffffffffffffffffffffffffffff16141561119357600080fd5b80600560003373ffffffffffffffffffffffffffffffffffffffff1673ffffffffffffffffffffffffffffffffffffffff16815260200190815260200160002060008473ffffffffffffffffffffffffffffffffffffffff1673ffffffffffffffffffffffffffffffffffffffff16815260200190815260200160002060006101000a81548160ff0219169083151502179055508173ffffffffffffffffffffffffffffffffffffffff163373ffffffffffffffffffffffffffffffffffffffff167f17307eab39ab6107e8899845ad3d59bd9653f200f220920489ca2b5937696c31836040516112849190612a41565b60405180910390a35050565b61129b84848461097d565b6112a78484848461199e565b6112b057600080fd5b50505050565b60606112c182611736565b611300576040517f08c379a00000000000000000000000000000000000000000000000000000000081526004016112f790613b02565b60405180910390fd5b60126000838152602001908152602001600020805461131e906135d0565b80601f016020809104026020016040519081016040528092919081815260200182805461134a906135d0565b80156113975780601f1061136c57610100808354040283529160200191611397565b820191906000526020600020905b81548152906001019060200180831161137a57829003601f168201915b50505050509050919050565b60006113b185858585610a76565b9050600073ffffffffffffffffffffffffffffffffffffffff166015600083815260200190815260200160002060010160009054906101000a900473ffffffffffffffffffffffffffffffffffffffff1673ffffffffffffffffffffffffffffffffffffffff1614611458576040517f08c379a000000000000000000000000000000000000000000000000000000000815260040161144f90613b6e565b60405180910390fd5b6000604051806060016040528060405180604001604052808960006002811061148457611483613602565b5b60200201518152602001896001600281106114a2576114a1613602565b5b602002015181525081526020016040518060400160405280886000600281106114ce576114cd613602565b5b60200201518152602001886001600281106114ec576114eb613602565b5b6020020151815250815260200160405180604001604052808760006002811061151857611517613602565b5b602002015181526020018760016002811061153657611535613602565b5b60200201518152508152509050601360009054906101000a900473ffffffffffffffffffffffffffffffffffffffff1673ffffffffffffffffffffffffffffffffffffffff166343cd76fc82856040518363ffffffff1660e01b81526004016115a0929190613d1a565b60206040518083038186803b1580156115b857600080fd5b505afa1580156115cc573d6000803e3d6000fd5b505050506040513d601f19601f820116820180604052508101906115f09190613d5a565b61162f576040517f08c379a000000000000000000000000000000000000000000000000000000000815260040161162690613dd3565b60405180910390fd5b61163a888884610e7e565b6116448888610ba4565b505050505050505050565b6000600560008473ffffffffffffffffffffffffffffffffffffffff1673ffffffffffffffffffffffffffffffffffffffff16815260200190815260200160002060008373ffffffffffffffffffffffffffffffffffffffff1673ffffffffffffffffffffffffffffffffffffffff16815260200190815260200160002060009054906101000a900460ff16905092915050565b6116eb611103565b61172a576040517f08c379a000000000000000000000000000000000000000000000000000000000815260040161172190613874565b60405180910390fd5b61173381611ab5565b50565b6000806002600084815260200190815260200160002060009054906101000a900473ffffffffffffffffffffffffffffffffffffffff169050600073ffffffffffffffffffffffffffffffffffffffff168173ffffffffffffffffffffffffffffffffffffffff161415915050919050565b6000806117b483610c7b565b90508073ffffffffffffffffffffffffffffffffffffffff168473ffffffffffffffffffffffffffffffffffffffff16148061182357508373ffffffffffffffffffffffffffffffffffffffff1661180b8461061a565b73ffffffffffffffffffffffffffffffffffffffff16145b806118345750611833818561164f565b5b91505092915050565b611848838383611be2565b6118528382611e11565b61185c8282611fc2565b505050565b61186b8282612086565b6118758282611fc2565b61187e81612238565b5050565b61188b81611736565b6118ca576040517f08c379a00000000000000000000000000000000000000000000000000000000081526004016118c190613e65565b60405180910390fd5b611966601180546118da906135d0565b80601f0160208091040260200160405190810160405280929190818152602001828054611906906135d0565b80156119535780601f1061192857610100808354040283529160200191611953565b820191906000526020600020905b81548152906001019060200180831161193657829003601f168201915b505050505061196183612281565b6123e8565b60126000838152602001908152602001600020908051906020019061198c9291906128ea565b5050565b600081600001549050919050565b60006119bf8473ffffffffffffffffffffffffffffffffffffffff1661242c565b6119cc5760019050611aad565b60008473ffffffffffffffffffffffffffffffffffffffff1663150b7a02338887876040518563ffffffff1660e01b8152600401611a0d9493929190613eda565b602060405180830381600087803b158015611a2757600080fd5b505af1158015611a3b573d6000803e3d6000fd5b505050506040513d601f19601f82011682018060405250810190611a5f9190613f3b565b905063150b7a0260e01b7bffffffffffffffffffffffffffffffffffffffffffffffffffffffff1916817bffffffffffffffffffffffffffffffffffffffffffffffffffffffff1916149150505b949350505050565b600073ffffffffffffffffffffffffffffffffffffffff168173ffffffffffffffffffffffffffffffffffffffff161415611b25576040517f08c379a0000000000000000000000000000000000000000000000000000000008152600401611b1c90613fda565b60405180910390fd5b8073ffffffffffffffffffffffffffffffffffffffff1660008054906101000a900473ffffffffffffffffffffffffffffffffffffffff1673ffffffffffffffffffffffffffffffffffffffff167f8be0079c531659141344cd1fd0a4f28419497f9722a3daafe3b4186f6b6457e060405160405180910390a3806000806101000a81548173ffffffffffffffffffffffffffffffffffffffff021916908373ffffffffffffffffffffffffffffffffffffffff16021790555050565b8273ffffffffffffffffffffffffffffffffffffffff16611c0282610c7b565b73ffffffffffffffffffffffffffffffffffffffff1614611c58576040517f08c379a0000000000000000000000000000000000000000000000000000000008152600401611c4f9061406c565b60405180910390fd5b600073ffffffffffffffffffffffffffffffffffffffff168273ffffffffffffffffffffffffffffffffffffffff161415611cc8576040517f08c379a0000000000000000000000000000000000000000000000000000000008152600401611cbf906140fe565b60405180910390fd5b611cd18161243f565b611d18600460008573ffffffffffffffffffffffffffffffffffffffff1673ffffffffffffffffffffffffffffffffffffffff1681526020019081526020016000206124fd565b611d5f600460008473ffffffffffffffffffffffffffffffffffffffff1673ffffffffffffffffffffffffffffffffffffffff168152602001908152602001600020612559565b816002600083815260200190815260200160002060006101000a81548173ffffffffffffffffffffffffffffffffffffffff021916908373ffffffffffffffffffffffffffffffffffffffff160217905550808273ffffffffffffffffffffffffffffffffffffffff168473ffffffffffffffffffffffffffffffffffffffff167fddf252ad1be2c89b69c2b068fc378daa952ba7f163c4a11628f55a4df523b3ef60405160405180910390a4505050565b60006001600660008573ffffffffffffffffffffffffffffffffffffffff1673ffffffffffffffffffffffffffffffffffffffff16815260200190815260200160002080549050611e62919061414d565b9050600060076000848152602001908152602001600020549050818114611f5d576000600660008673ffffffffffffffffffffffffffffffffffffffff1673ffffffffffffffffffffffffffffffffffffffff1681526020019081526020016000208381548110611ed657611ed5613602565b5b9060005260206000200154905080600660008773ffffffffffffffffffffffffffffffffffffffff1673ffffffffffffffffffffffffffffffffffffffff1681526020019081526020016000208381548110611f3557611f34613602565b5b9060005260206000200181905550816007600083815260200190815260200160002081905550505b600660008573ffffffffffffffffffffffffffffffffffffffff1673ffffffffffffffffffffffffffffffffffffffff1681526020019081526020016000208281548110611fae57611fad613602565b5b906000526020600020016000905550505050565b600660008373ffffffffffffffffffffffffffffffffffffffff1673ffffffffffffffffffffffffffffffffffffffff168152602001908152602001600020805490506007600083815260200190815260200160002081905550600660008373ffffffffffffffffffffffffffffffffffffffff1673ffffffffffffffffffffffffffffffffffffffff1681526020019081526020016000208190806001815401808255809150506001900390600052602060002001600090919091909150555050565b600073ffffffffffffffffffffffffffffffffffffffff168273ffffffffffffffffffffffffffffffffffffffff1614156120f6576040517f08c379a00000000000000000000000000000000000000000000000000000000081526004016120ed906141cd565b60405180910390fd5b6120ff81611736565b1561213f576040517f08c379a000000000000000000000000000000000000000000000000000000000815260040161213690614239565b60405180910390fd5b816002600083815260200190815260200160002060006101000a81548173ffffffffffffffffffffffffffffffffffffffff021916908373ffffffffffffffffffffffffffffffffffffffff1602179055506121d8600460008473ffffffffffffffffffffffffffffffffffffffff1673ffffffffffffffffffffffffffffffffffffffff168152602001908152602001600020612559565b808273ffffffffffffffffffffffffffffffffffffffff16600073ffffffffffffffffffffffffffffffffffffffff167fddf252ad1be2c89b69c2b068fc378daa952ba7f163c4a11628f55a4df523b3ef60405160405180910390a45050565b6008805490506009600083815260200190815260200160002081905550600881908060018154018082558091505060019003906000526020600020016000909190919091505550565b606060008214156122c9576040518060400160405280600181526020017f300000000000000000000000000000000000000000000000000000000000000081525090506123e3565b600082905060005b600082146122fb5780806122e490614259565b915050600a826122f491906142d1565b91506122d1565b60008167ffffffffffffffff81111561231757612316612cff565b5b6040519080825280601f01601f1916602001820160405280156123495781602001600182028036833780820191505090505b50905060008290508593505b600084146123db57600a8461236a9190614302565b60306123769190614333565b60f81b828261238490614389565b9250828151811061239857612397613602565b5b60200101907effffffffffffffffffffffffffffffffffffffffffffffffffffffffffffff1916908160001a905350600a846123d491906142d1565b9350612355565b819450505050505b919050565b6060612424838360405180602001604052806000815250604051806020016040528060008152506040518060200160405280600081525061256f565b905092915050565b600080823b905060008111915050919050565b600073ffffffffffffffffffffffffffffffffffffffff166003600083815260200190815260200160002060009054906101000a900473ffffffffffffffffffffffffffffffffffffffff1673ffffffffffffffffffffffffffffffffffffffff16146124fa5760006003600083815260200190815260200160002060006101000a81548173ffffffffffffffffffffffffffffffffffffffff021916908373ffffffffffffffffffffffffffffffffffffffff1602179055505b50565b60008160000154905060008111612549576040517f08c379a0000000000000000000000000000000000000000000000000000000008152600401612540906143ff565b60405180910390fd5b6001810382600001819055505050565b6001816000016000828254019250508190555050565b6060600086905060008690506000869050600086905060008690506000815183518551875189516125a09190614333565b6125aa9190614333565b6125b49190614333565b6125be9190614333565b67ffffffffffffffff8111156125d7576125d6612cff565b5b6040519080825280601f01601f1916602001820160405280156126095781602001600182028036833780820191505090505b5090506000819050600080600090505b88518110156126a15788818151811061263557612634613602565b5b602001015160f81c60f81b83838061264c90614259565b94508151811061265f5761265e613602565b5b60200101907effffffffffffffffffffffffffffffffffffffffffffffffffffffffffffff1916908160001a905350808061269990614259565b915050612619565b600090505b875181101561272e578781815181106126c2576126c1613602565b5b602001015160f81c60f81b8383806126d990614259565b9450815181106126ec576126eb613602565b5b60200101907effffffffffffffffffffffffffffffffffffffffffffffffffffffffffffff1916908160001a905350808061272690614259565b9150506126a6565b600090505b86518110156127bb5786818151811061274f5761274e613602565b5b602001015160f81c60f81b83838061276690614259565b94508151811061277957612778613602565b5b60200101907effffffffffffffffffffffffffffffffffffffffffffffffffffffffffffff1916908160001a90535080806127b390614259565b915050612733565b600090505b8551811015612848578581815181106127dc576127db613602565b5b602001015160f81c60f81b8383806127f390614259565b94508151811061280657612805613602565b5b60200101907effffffffffffffffffffffffffffffffffffffffffffffffffffffffffffff1916908160001a905350808061284090614259565b9150506127c0565b600090505b84518110156128d55784818151811061286957612868613602565b5b602001015160f81c60f81b83838061288090614259565b94508151811061289357612892613602565b5b60200101907effffffffffffffffffffffffffffffffffffffffffffffffffffffffffffff1916908160001a90535080806128cd90614259565b91505061284d565b82995050505050505050505095945050505050565b8280546128f6906135d0565b90600052602060002090601f016020900481019282612918576000855561295f565b82601f1061293157805160ff191683800117855561295f565b8280016001018555821561295f579182015b8281111561295e578251825591602001919060010190612943565b5b50905061296c9190612970565b5090565b5b80821115612989576000816000905550600101612971565b5090565b6000604051905090565b600080fd5b600080fd5b60007fffffffff0000000000000000000000000000000000000000000000000000000082169050919050565b6129d6816129a1565b81146129e157600080fd5b50565b6000813590506129f3816129cd565b92915050565b600060208284031215612a0f57612a0e612997565b5b6000612a1d848285016129e4565b91505092915050565b60008115159050919050565b612a3b81612a26565b82525050565b6000602082019050612a566000830184612a32565b92915050565b6000819050919050565b612a6f81612a5c565b8114612a7a57600080fd5b50565b600081359050612a8c81612a66565b92915050565b600060208284031215612aa857612aa7612997565b5b6000612ab684828501612a7d565b91505092915050565b600073ffffffffffffffffffffffffffffffffffffffff82169050919050565b6000612aea82612abf565b9050919050565b612afa81612adf565b82525050565b6000602082019050612b156000830184612af1565b92915050565b612b2481612adf565b8114612b2f57600080fd5b50565b600081359050612b4181612b1b565b92915050565b60008060408385031215612b5e57612b5d612997565b5b6000612b6c85828601612b32565b9250506020612b7d85828601612a7d565b9150509250929050565b600081519050919050565b600082825260208201905092915050565b60005b83811015612bc1578082015181840152602081019050612ba6565b83811115612bd0576000848401525b50505050565b6000601f19601f8301169050919050565b6000612bf282612b87565b612bfc8185612b92565b9350612c0c818560208601612ba3565b612c1581612bd6565b840191505092915050565b60006020820190508181036000830152612c3a8184612be7565b905092915050565b612c4b81612a5c565b82525050565b6000602082019050612c666000830184612c42565b92915050565b600080600060608486031215612c8557612c84612997565b5b6000612c9386828701612b32565b9350506020612ca486828701612b32565b9250506040612cb586828701612a7d565b9150509250925092565b6000819050919050565b612cd281612cbf565b8114612cdd57600080fd5b50565b600081359050612cef81612cc9565b92915050565b600080fd5b600080fd5b7f4e487b7100000000000000000000000000000000000000000000000000000000600052604160045260246000fd5b612d3782612bd6565b810181811067ffffffffffffffff82111715612d5657612d55612cff565b5b80604052505050565b6000612d6961298d565b9050612d758282612d2e565b919050565b600067ffffffffffffffff821115612d9557612d94612cff565b5b612d9e82612bd6565b9050602081019050919050565b82818337600083830152505050565b6000612dcd612dc884612d7a565b612d5f565b905082815260208101848484011115612de957612de8612cfa565b5b612df4848285612dab565b509392505050565b600082601f830112612e1157612e10612cf5565b5b8135612e21848260208601612dba565b91505092915050565b60008060408385031215612e4157612e40612997565b5b6000612e4f85828601612ce0565b925050602083013567ffffffffffffffff811115612e7057612e6f61299c565b5b612e7c85828601612dfc565b9150509250929050565b600067ffffffffffffffff821115612ea157612ea0612cff565b5b602082029050919050565b600080fd5b6000612ec4612ebf84612e86565b612d5f565b90508060208402830185811115612ede57612edd612eac565b5b835b81811015612f075780612ef38882612a7d565b845260208401935050602081019050612ee0565b5050509392505050565b600082601f830112612f2657612f25612cf5565b5b6002612f33848285612eb1565b91505092915050565b600067ffffffffffffffff821115612f5757612f56612cff565b5b602082029050919050565b6000612f75612f7084612f3c565b612d5f565b90508060408402830185811115612f8f57612f8e612eac565b5b835b81811015612fb85780612fa48882612f11565b845260208401935050604081019050612f91565b5050509392505050565b600082601f830112612fd757612fd6612cf5565b5b6002612fe4848285612f62565b91505092915050565b600080600080610140858703121561300857613007612997565b5b600061301687828801612f11565b945050604061302787828801612fc2565b93505060c061303887828801612f11565b92505061010061304a87828801612f11565b91505092959194509250565b61305f81612cbf565b82525050565b600060208201905061307a6000830184613056565b92915050565b600067ffffffffffffffff82111561309b5761309a612cff565b5b6130a482612bd6565b9050602081019050919050565b60006130c46130bf84613080565b612d5f565b9050828152602081018484840111156130e0576130df612cfa565b5b6130eb848285612dab565b509392505050565b600082601f83011261310857613107612cf5565b5b81356131188482602086016130b1565b91505092915050565b60008060006060848603121561313a57613139612997565b5b600061314886828701612ce0565b935050602084013567ffffffffffffffff8111156131695761316861299c565b5b61317586828701612dfc565b925050604084013567ffffffffffffffff8111156131965761319561299c565b5b6131a2868287016130f3565b9150509250925092565b6000602082840312156131c2576131c1612997565b5b60006131d084828501612b32565b91505092915050565b6000806000606084860312156131f2576131f1612997565b5b600061320086828701612b32565b935050602061321186828701612a7d565b925050604061322286828701612ce0565b9150509250925092565b61323581612a26565b811461324057600080fd5b50565b6000813590506132528161322c565b92915050565b6000806040838503121561326f5761326e612997565b5b600061327d85828601612b32565b925050602061328e85828601613243565b9150509250929050565b600080600080608085870312156132b2576132b1612997565b5b60006132c087828801612b32565b94505060206132d187828801612b32565b93505060406132e287828801612a7d565b925050606085013567ffffffffffffffff8111156133035761330261299c565b5b61330f878288016130f3565b91505092959194509250565b600080600080600080610180878903121561333957613338612997565b5b600061334789828a01612b32565b965050602061335889828a01612a7d565b955050604061336989828a01612f11565b945050608061337a89828a01612fc2565b93505061010061338c89828a01612f11565b92505061014061339e89828a01612f11565b9150509295509295509295565b600080604083850312156133c2576133c1612997565b5b60006133d085828601612b32565b92505060206133e185828601612b32565b9150509250929050565b7f4552433732313a20617070726f76656420717565727920666f72206e6f6e657860008201527f697374656e7420746f6b656e0000000000000000000000000000000000000000602082015250565b6000613447602c83612b92565b9150613452826133eb565b604082019050919050565b600060208201905081810360008301526134768161343a565b9050919050565b7f4552433732313a20617070726f76616c20746f2063757272656e74206f776e6560008201527f7200000000000000000000000000000000000000000000000000000000000000602082015250565b60006134d9602183612b92565b91506134e48261347d565b604082019050919050565b60006020820190508181036000830152613508816134cc565b9050919050565b7f4552433732313a20617070726f76652063616c6c6572206973206e6f74206f7760008201527f6e6572206e6f7220617070726f76656420666f7220616c6c0000000000000000602082015250565b600061356b603883612b92565b91506135768261350f565b604082019050919050565b6000602082019050818103600083015261359a8161355e565b9050919050565b7f4e487b7100000000000000000000000000000000000000000000000000000000600052602260045260246000fd5b600060028204905060018216806135e857607f821691505b602082108114156135fc576135fb6135a1565b5b50919050565b7f4e487b7100000000000000000000000000000000000000000000000000000000600052603260045260246000fd5b600060029050919050565b600081905092915050565b6000819050919050565b61365a81612a5c565b82525050565b600061366c8383613651565b60208301905092915050565b6000602082019050919050565b61368e81613631565b613698818461363c565b92506136a382613647565b8060005b838110156136d45781516136bb8782613660565b96506136c683613678565b9250506001810190506136a7565b505050505050565b600060029050919050565b600081905092915050565b6000819050919050565b600081905092915050565b61371081613631565b61371a81846136fc565b925061372582613647565b8060005b8381101561375657815161373d8782613660565b965061374883613678565b925050600181019050613729565b505050505050565b600061376a8383613707565b60408301905092915050565b6000602082019050919050565b61378c816136dc565b61379681846136e7565b92506137a1826136f2565b8060005b838110156137d25781516137b9878261375e565b96506137c483613776565b9250506001810190506137a5565b505050505050565b60006137e68287613685565b6040820191506137f68286613783565b6080820191506138068285613685565b6040820191506138168284613685565b60408201915081905095945050505050565b7f4f776e61626c653a2063616c6c6572206973206e6f7420746865206f776e6572600082015250565b600061385e602083612b92565b915061386982613828565b602082019050919050565b6000602082019050818103600083015261388d81613851565b9050919050565b7f5061757361626c653a206e6f7420706175736564000000000000000000000000600082015250565b60006138ca601483612b92565b91506138d582613894565b602082019050919050565b600060208201905081810360008301526138f9816138bd565b9050919050565b7f4552433732313a206f776e657220717565727920666f72206e6f6e657869737460008201527f656e7420746f6b656e0000000000000000000000000000000000000000000000602082015250565b600061395c602983612b92565b915061396782613900565b604082019050919050565b6000602082019050818103600083015261398b8161394f565b9050919050565b7f4552433732313a2062616c616e636520717565727920666f7220746865207a6560008201527f726f206164647265737300000000000000000000000000000000000000000000602082015250565b60006139ee602a83612b92565b91506139f982613992565b604082019050919050565b60006020820190508181036000830152613a1d816139e1565b9050919050565b7f5061757361626c653a2070617573656400000000000000000000000000000000600082015250565b6000613a5a601083612b92565b9150613a6582613a24565b602082019050919050565b60006020820190508181036000830152613a8981613a4d565b9050919050565b7f4552433732314d657461646174613a2055524920717565727920666f72206e6f60008201527f6e6578697374656e7420746f6b656e0000000000000000000000000000000000602082015250565b6000613aec602f83612b92565b9150613af782613a90565b604082019050919050565b60006020820190508181036000830152613b1b81613adf565b9050919050565b7f536f6c7574696f6e20697320616c726561647920757365642e00000000000000600082015250565b6000613b58601983612b92565b9150613b6382613b22565b602082019050919050565b60006020820190508181036000830152613b8781613b4b565b9050919050565b613b9781612a5c565b82525050565b604082016000820151613bb36000850182613b8e565b506020820151613bc66020850182613b8e565b50505050565b600081905092915050565b6000613be38383613b8e565b60208301905092915050565b613bf881613631565b613c028184613bcc565b9250613c0d82613647565b8060005b83811015613c3e578151613c258782613bd7565b9650613c3083613678565b925050600181019050613c11565b505050505050565b608082016000820151613c5c6000850182613bef565b506020820151613c6f6040850182613bef565b50505050565b61010082016000820151613c8c6000850182613b9d565b506020820151613c9f6040850182613c46565b506040820151613cb260c0850182613b9d565b50505050565b600081905092915050565b613ccc81613631565b613cd68184613cb8565b9250613ce182613647565b8060005b83811015613d12578151613cf98782613bd7565b9650613d0483613678565b925050600181019050613ce5565b505050505050565b600061014082019050613d306000830185613c75565b613d3e610100830184613cc3565b9392505050565b600081519050613d548161322c565b92915050565b600060208284031215613d7057613d6f612997565b5b6000613d7e84828501613d45565b91505092915050565b7f536f6c7574696f6e206973206e6f7420636f7272656374000000000000000000600082015250565b6000613dbd601783612b92565b9150613dc882613d87565b602082019050919050565b60006020820190508181036000830152613dec81613db0565b9050919050565b7f4552433732314d657461646174613a2055524920736574206f66206e6f6e657860008201527f697374656e7420746f6b656e0000000000000000000000000000000000000000602082015250565b6000613e4f602c83612b92565b9150613e5a82613df3565b604082019050919050565b60006020820190508181036000830152613e7e81613e42565b9050919050565b600081519050919050565b600082825260208201905092915050565b6000613eac82613e85565b613eb68185613e90565b9350613ec6818560208601612ba3565b613ecf81612bd6565b840191505092915050565b6000608082019050613eef6000830187612af1565b613efc6020830186612af1565b613f096040830185612c42565b8181036060830152613f1b8184613ea1565b905095945050505050565b600081519050613f35816129cd565b92915050565b600060208284031215613f5157613f50612997565b5b6000613f5f84828501613f26565b91505092915050565b7f4f776e61626c653a206e6577206f776e657220697320746865207a65726f206160008201527f6464726573730000000000000000000000000000000000000000000000000000602082015250565b6000613fc4602683612b92565b9150613fcf82613f68565b604082019050919050565b60006020820190508181036000830152613ff381613fb7565b9050919050565b7f4552433732313a207472616e73666572206f6620746f6b656e2074686174206960008201527f73206e6f74206f776e0000000000000000000000000000000000000000000000602082015250565b6000614056602983612b92565b915061406182613ffa565b604082019050919050565b6000602082019050818103600083015261408581614049565b9050919050565b7f4552433732313a207472616e7366657220746f20746865207a65726f2061646460008201527f7265737300000000000000000000000000000000000000000000000000000000602082015250565b60006140e8602483612b92565b91506140f38261408c565b604082019050919050565b60006020820190508181036000830152614117816140db565b9050919050565b7f4e487b7100000000000000000000000000000000000000000000000000000000600052601160045260246000fd5b600061415882612a5c565b915061416383612a5c565b9250828210156141765761417561411e565b5b828203905092915050565b7f4552433732313a206d696e7420746f20746865207a65726f2061646472657373600082015250565b60006141b7602083612b92565b91506141c282614181565b602082019050919050565b600060208201905081810360008301526141e6816141aa565b9050919050565b7f4552433732313a20746f6b656e20616c7265616479206d696e74656400000000600082015250565b6000614223601c83612b92565b915061422e826141ed565b602082019050919050565b6000602082019050818103600083015261425281614216565b9050919050565b600061426482612a5c565b91507fffffffffffffffffffffffffffffffffffffffffffffffffffffffffffffffff8214156142975761429661411e565b5b600182019050919050565b7f4e487b7100000000000000000000000000000000000000000000000000000000600052601260045260246000fd5b60006142dc82612a5c565b91506142e783612a5c565b9250826142f7576142f66142a2565b5b828204905092915050565b600061430d82612a5c565b915061431883612a5c565b925082614328576143276142a2565b5b828206905092915050565b600061433e82612a5c565b915061434983612a5c565b9250827fffffffffffffffffffffffffffffffffffffffffffffffffffffffffffffffff0382111561437e5761437d61411e565b5b828201905092915050565b600061439482612a5c565b915060008214156143a8576143a761411e565b5b600182039050919050565b7f436f756e7465723a2064656372656d656e74206f766572666c6f770000000000600082015250565b60006143e9601b83612b92565b91506143f4826143b3565b602082019050919050565b60006020820190508181036000830152614418816143dc565b905091905056fea2646970667358221220f81958e1b8d057665d48f28a0815afaa94809302ebe86fe959f0351236c1b83764736f6c6343000809003368747470733a2f2f73332d75732d776573742d322e616d617a6f6e6177732e636f6d2f756461636974792d626c6f636b636861696e2f63617073746f6e652f",
  "immutableReferences": {},
  "source": "//SPDX-License-Identifier: UNLICENSED\npragma solidity >=0.8.8;\npragma experimental ABIEncoderV2;\nimport \"./ERC721Mintable.sol\";\nimport \"./SquareVerifier.sol\";\n\n\n// TODO define another contract named SolnSquareVerifier that inherits from your ERC721Mintable class\ncontract SolnSquareVerifier is ERC721MintableComplete\n{\n\n    SquareVerifier private verifierContract;\n\n    constructor(address verifierAddress) ERC721MintableComplete() {\n        verifierContract = SquareVerifier(verifierAddress);\n    }\n\n// TODO define a solutions struct that can hold an index & an address\nstruct Solution {\n    uint256 index;\n    address addr;\n}\n\n// TODO define an array of the above struct\nSolution[] private _solutions;\n\n// TODO define a mapping to store unique solutions submitted\nmapping (bytes32 => Solution) submittedSolutions;\n\n\n// TODO Create an event to emit when a solution is added\nevent SolutionAdded(uint256 slnIndex, address indexed slnAddress);\n\nfunction getVerifierKey(\n        uint256[2] memory a,\n        uint256[2][2] memory b,\n        uint256[2] memory c,\n        uint256[2] memory input\n    ) public pure returns (bytes32) {\n        return keccak256(abi.encodePacked(a, b, c, input));\n    }\n\n// TODO Create a function to add the solutions to the array and emit the event\nfunction addSolution(address _addr, uint256 _index, bytes32 _key) public\n{\n    Solution memory solution = Solution({index : _index, addr : _addr});\n    _solutions.push(solution);\n    submittedSolutions[_key] = solution;\n    emit SolutionAdded(_index, _addr);\n}\n\n\n// DONE Create a function to mint new NFT only after the solution has been verified\n//  - make sure the solution is unique (has not been used before)\n//  - make sure you handle metadata as well as tokenSuplly\nfunction mintToken(\n        address _to,\n        uint256 _tokenId,\n        uint[2] memory a,\n        uint[2][2] memory b,\n        uint[2] memory c,\n        uint[2] memory input\n    ) public {\n        // hash solution to get key\n        bytes32 key = getVerifierKey(a, b, c, input);\n        //  - make sure the solution is unique (has not been used before)\n        require(submittedSolutions[key].addr == address(0), \"Solution is already used.\");\n        //  verify solution\n        Verifier.Proof memory proof = Verifier.Proof(\n            Pairing.G1Point(a[0], a[1]),\n            Pairing.G2Point(b[0], b[1]),\n            Pairing.G1Point(c[0], c[1])\n        );\n        require(verifierContract.verifyTx(proof, input), \"Solution is not correct\");\n\n        addSolution(_to, _tokenId, key);\n        //  - make sure you handle metadata as well as tokenSuplly\n        super.mint(_to, _tokenId);\n    }\n\n}\n  \n\n\n\n\n\n\n\n\n\n\n\n\n\n\n\n\n\n\n\n\n\n\n\n\n\n\n",
  "sourcePath": "/Users/linekertomazeli/Dev/capstone/eth-contracts/contracts/SolnSquareVerifier.sol",
  "compiler": {
    "name": "solc",
    "version": "0.8.9+commit.e5eed63a.Emscripten.clang"
  },
  "schemaVersion": "3.4.3",
  "updatedAt": "2021-10-20T17:34:05.226Z",
  "networkType": "ethereum",
  "devdoc": {
    "kind": "dev",
    "methods": {
      "getBaseURI()": {
        "details": "Returns the base URI",
        "returns": {
          "_0": "string representing the baseURI"
        }
      },
      "getName()": {
        "details": "Gets the token name.",
        "returns": {
          "_0": "string representing the token name"
        }
      },
      "getSymbol()": {
        "details": "Gets the token symbol.",
        "returns": {
          "_0": "string representing the token symbol"
        }
      },
      "isApprovedForAll(address,address)": {
        "details": "Tells whether an operator is approved by a given owner",
        "params": {
          "operator": "operator address which you want to query the approval of",
          "owner": "owner address which you want to query the approval of"
        },
        "returns": {
          "_0": "bool whether the given operator is approved by the given owner"
        }
      },
      "isOwner()": {
        "details": "Returns true if the caller is the current owner."
      },
      "owner()": {
        "details": "Returns the address of the current owner."
      },
      "pause()": {
        "details": "Called by a pauser to pause, triggers stopped state."
      },
      "paused()": {
        "details": "Returns true if the contract is paused, and false otherwise."
      },
      "setApprovalForAll(address,bool)": {
        "details": "Sets or unsets the approval of a given operator An operator is allowed to transfer all tokens of the sender on their behalf",
        "params": {
          "approved": "representing the status of the approval to be set",
          "to": "operator address to set the approval"
        }
      },
      "supportsInterface(bytes4)": {
        "details": "implement supportsInterface(bytes4) using a lookup table"
      },
      "tokenByIndex(uint256)": {
        "details": "Gets the token ID at a given index of all the tokens in this contract Reverts if the index is greater or equal to the total number of tokens",
        "params": {
          "index": "uint256 representing the index to be accessed of the tokens list"
        },
        "returns": {
          "_0": "uint256 token ID at the given index of the tokens list"
        }
      },
      "tokenOfOwnerByIndex(address,uint256)": {
        "details": "Gets the token ID at a given index of the tokens list of the requested owner",
        "params": {
          "index": "uint256 representing the index to be accessed of the requested tokens list",
          "owner": "address owning the tokens list to be accessed"
        },
        "returns": {
          "_0": "uint256 token ID at the given index of the tokens list owned by the requested address"
        }
      },
      "totalSupply()": {
        "details": "Gets the total amount of tokens stored by the contract",
        "returns": {
          "_0": "uint256 representing the total amount of tokens"
        }
      },
      "transferOwnership(address)": {
        "details": "Transfers ownership of the contract to a new account (`newOwner`). Can only be called by the current owner."
      },
      "unpause()": {
        "details": "Called by a pauser to unpause, returns to normal state."
      }
    },
    "version": 1
  },
  "userdoc": {
    "kind": "user",
    "methods": {},
    "version": 1
  }
}