{
  "contractName": "SquareVerifier",
  "abi": [
    {
      "inputs": [
        {
          "components": [
            {
              "components": [
                {
                  "internalType": "uint256",
                  "name": "X",
                  "type": "uint256"
                },
                {
                  "internalType": "uint256",
                  "name": "Y",
                  "type": "uint256"
                }
              ],
              "internalType": "struct Pairing.G1Point",
              "name": "a",
              "type": "tuple"
            },
            {
              "components": [
                {
                  "internalType": "uint256[2]",
                  "name": "X",
                  "type": "uint256[2]"
                },
                {
                  "internalType": "uint256[2]",
                  "name": "Y",
                  "type": "uint256[2]"
                }
              ],
              "internalType": "struct Pairing.G2Point",
              "name": "b",
              "type": "tuple"
            },
            {
              "components": [
                {
                  "internalType": "uint256",
                  "name": "X",
                  "type": "uint256"
                },
                {
                  "internalType": "uint256",
                  "name": "Y",
                  "type": "uint256"
                }
              ],
              "internalType": "struct Pairing.G1Point",
              "name": "c",
              "type": "tuple"
            }
          ],
          "internalType": "struct Verifier.Proof",
          "name": "proof",
          "type": "tuple"
        },
        {
          "internalType": "uint256[2]",
          "name": "input",
          "type": "uint256[2]"
        }
      ],
      "name": "verifyTx",
      "outputs": [
        {
          "internalType": "bool",
          "name": "r",
          "type": "bool"
        }
      ],
      "stateMutability": "view",
      "type": "function",
      "constant": true
    }
  ],
  "bytecode": "0x608060405234801561001057600080fd5b506114c0806100206000396000f3fe608060405234801561001057600080fd5b506004361061002b5760003560e01c806343cd76fc14610030575b600080fd5b61004a60048036038101906100459190611227565b610060565b6040516100579190611284565b60405180910390f35b600080600267ffffffffffffffff81111561007e5761007d610fb6565b5b6040519080825280602002602001820160405280156100ac5781602001602082028036833780820191505090505b50905060005b6002811015610105578381600281106100ce576100cd61129f565b5b60200201518282815181106100e6576100e561129f565b5b60200260200101818152505080806100fd906112fd565b9150506100b2565b506000610112828661012e565b1415610122576001915050610128565b60009150505b92915050565b6000807f30644e72e131a029b85045b68181585d2833e84879b9709143e1f593f00000019050600061015e6102c5565b9050806080015151600186516101749190611346565b1461017e57600080fd5b60006040518060400160405280600081526020016000815250905060005b865181101561023757838782815181106101b9576101b861129f565b5b6020026020010151106101cb57600080fd5b6102228261021d85608001516001856101e49190611346565b815181106101f5576101f461129f565b5b60200260200101518a85815181106102105761020f61129f565b5b6020026020010151610741565b6107e8565b9150808061022f906112fd565b91505061019c565b506102618183608001516000815181106102545761025361129f565b5b60200260200101516107e8565b90506102a785600001518660200151610279846108b5565b856040015161028b8a604001516108b5565b876060015161029d89600001516108b5565b896020015161095a565b6102b757600193505050506102bf565b600093505050505b92915050565b6102cd610e82565b60405180604001604052807f0df00a06d6db8ce7c6224e2e59da6ee647a534253bf4b08be817f550a50c2e0981526020017f1e3f52d94032598d081d99c39e5443a880f5b79d6063c728e1380c69ca7eb4748152508160000181905250604051806040016040528060405180604001604052807f29b347da7c68cd68ea74db0ea9ade819ced938514d31dac5cd8cfeca18d3527f81526020017f1b056ec985af8e302e7302d8be51d6680807b41dfeaecdbf1bd26edf9bbccbfe815250815260200160405180604001604052807f2d6859ce19ff81c5e13135b3bcd02c1d26640a17ab64ca095df971a9b4a5358d81526020017f1c6f63b3ba97a033f34d699090aef9607cb23dcc6d48eb8a483e74c6d471e1bb8152508152508160200181905250604051806040016040528060405180604001604052807f2cba9d5e170c2dfca8068601c621d2863785f70855c810053f32fe31e1d1a89a81526020017f271781b86508817f1bb955916955fef1da7805c150519d7a9ab53cfc399c340b815250815260200160405180604001604052807f2a3a6f8d4398000120dec5c2965d068572fda51d503455b0c6cdb0266a0bbb4f81526020017f04eb11c7bb22fd204d4a1f6471c9df6d1455daa2d470d4b26cbc2514543202918152508152508160400181905250604051806040016040528060405180604001604052807f0fedca27c3dea5237735c0b8bbbad5a1271615fd40c50fbe7c457e2a63acebdd81526020017f12c3047d6d40fc921ade4bbd910568fe24df76845bdcc18c4cf8a96b12844343815250815260200160405180604001604052807f0ae3eea518682b3f14dc412f8b2ff9c0283a8eec94cd4bdd2f5adfd635452d2281526020017f0c656a6299fbef9df480d34557c1ea91ac82e513ca3f354510cb0a0bf6034db38152508152508160600181905250600367ffffffffffffffff81111561059457610593610fb6565b5b6040519080825280602002602001820160405280156105cd57816020015b6105ba610ec9565b8152602001906001900390816105b25790505b50816080018190525060405180604001604052807f269fd51d0a89c5c85434080ad2651d994661bcf25e5a264ea6727f017a34331381526020017f2da8bfcd397a5805e2f4f14e7a38c1c894f25333484d7121353758e57f8c4da881525081608001516000815181106106435761064261129f565b5b602002602001018190525060405180604001604052807f07575f85673c8abe2b072d538ba4b39432e94337d9d467eb7b0872091ce05bab81526020017f04d8a850caea58126436b6c65a67feb77d5b1021765ba7ae41d0b9e38824180781525081608001516001815181106106bb576106ba61129f565b5b602002602001018190525060405180604001604052807f0f65666fc150fd1d5f553cc51e321bd64a5805ced4123d98be962a1771bf2f2a81526020017f09ac2e2b06fffe9dbbe435b1313b9aa5e86d182461b041332526f9a78c1bd2b681525081608001516002815181106107335761073261129f565b5b602002602001018190525090565b610749610ec9565b610751610ee3565b83600001518160006003811061076a5761076961129f565b5b60200201818152505083602001518160016003811061078c5761078b61129f565b5b60200201818152505082816002600381106107aa576107a961129f565b5b602002018181525050600060608360808460076107d05a03fa905080600081146107d3576107d5565bfe5b50806107e057600080fd5b505092915050565b6107f0610ec9565b6107f8610f05565b8360000151816000600481106108115761081061129f565b5b6020020181815250508360200151816001600481106108335761083261129f565b5b6020020181815250508260000151816002600481106108555761085461129f565b5b6020020181815250508260200151816003600481106108775761087661129f565b5b602002018181525050600060608360c08460066107d05a03fa905080600081146108a0576108a2565bfe5b50806108ad57600080fd5b505092915050565b6108bd610ec9565b60007f30644e72e131a029b85045b68181585d97816a916871ca8d3c208c16d87cfd479050600083600001511480156108fa575060008360200151145b1561091e576040518060400160405280600081526020016000815250915050610955565b60405180604001604052808460000151815260200182856020015161094391906113cb565b8361094e91906113fc565b8152509150505b919050565b600080600467ffffffffffffffff81111561097857610977610fb6565b5b6040519080825280602002602001820160405280156109b157816020015b61099e610ec9565b8152602001906001900390816109965790505b5090506000600467ffffffffffffffff8111156109d1576109d0610fb6565b5b604051908082528060200260200182016040528015610a0a57816020015b6109f7610f27565b8152602001906001900390816109ef5790505b5090508a82600081518110610a2257610a2161129f565b5b60200260200101819052508882600181518110610a4257610a4161129f565b5b60200260200101819052508682600281518110610a6257610a6161129f565b5b60200260200101819052508482600381518110610a8257610a8161129f565b5b60200260200101819052508981600081518110610aa257610aa161129f565b5b60200260200101819052508781600181518110610ac257610ac161129f565b5b60200260200101819052508581600281518110610ae257610ae161129f565b5b60200260200101819052508381600381518110610b0257610b0161129f565b5b6020026020010181905250610b178282610b27565b9250505098975050505050505050565b60008151835114610b3757600080fd5b6000835190506000600682610b4c9190611430565b905060008167ffffffffffffffff811115610b6a57610b69610fb6565b5b604051908082528060200260200182016040528015610b985781602001602082028036833780820191505090505b50905060005b83811015610e1d57868181518110610bb957610bb861129f565b5b602002602001015160000151826000600684610bd59190611430565b610bdf9190611346565b81518110610bf057610bef61129f565b5b602002602001018181525050868181518110610c0f57610c0e61129f565b5b602002602001015160200151826001600684610c2b9190611430565b610c359190611346565b81518110610c4657610c4561129f565b5b602002602001018181525050858181518110610c6557610c6461129f565b5b602002602001015160000151600160028110610c8457610c8361129f565b5b6020020151826002600684610c999190611430565b610ca39190611346565b81518110610cb457610cb361129f565b5b602002602001018181525050858181518110610cd357610cd261129f565b5b602002602001015160000151600060028110610cf257610cf161129f565b5b6020020151826003600684610d079190611430565b610d119190611346565b81518110610d2257610d2161129f565b5b602002602001018181525050858181518110610d4157610d4061129f565b5b602002602001015160200151600160028110610d6057610d5f61129f565b5b6020020151826004600684610d759190611430565b610d7f9190611346565b81518110610d9057610d8f61129f565b5b602002602001018181525050858181518110610daf57610dae61129f565b5b602002602001015160200151600060028110610dce57610dcd61129f565b5b6020020151826005600684610de39190611430565b610ded9190611346565b81518110610dfe57610dfd61129f565b5b6020026020010181815250508080610e15906112fd565b915050610b9e565b50610e26610f4d565b6000602082602086026020860160086107d05a03fa90508060008114610e4b57610e4d565bfe5b5080610e5857600080fd5b600082600060018110610e6e57610e6d61129f565b5b602002015114159550505050505092915050565b6040518060a00160405280610e95610ec9565b8152602001610ea2610f27565b8152602001610eaf610f27565b8152602001610ebc610f27565b8152602001606081525090565b604051806040016040528060008152602001600081525090565b6040518060600160405280600390602082028036833780820191505090505090565b6040518060800160405280600490602082028036833780820191505090505090565b6040518060400160405280610f3a610f6f565b8152602001610f47610f6f565b81525090565b6040518060200160405280600190602082028036833780820191505090505090565b6040518060400160405280600290602082028036833780820191505090505090565b6000604051905090565b600080fd5b600080fd5b6000601f19601f8301169050919050565b7f4e487b7100000000000000000000000000000000000000000000000000000000600052604160045260246000fd5b610fee82610fa5565b810181811067ffffffffffffffff8211171561100d5761100c610fb6565b5b80604052505050565b6000611020610f91565b905061102c8282610fe5565b919050565b6000819050919050565b61104481611031565b811461104f57600080fd5b50565b6000813590506110618161103b565b92915050565b60006040828403121561107d5761107c610fa0565b5b6110876040611016565b9050600061109784828501611052565b60008301525060206110ab84828501611052565b60208301525092915050565b600080fd5b600067ffffffffffffffff8211156110d7576110d6610fb6565b5b602082029050919050565b600080fd5b60006110fa6110f5846110bc565b611016565b90508060208402830185811115611114576111136110e2565b5b835b8181101561113d57806111298882611052565b845260208401935050602081019050611116565b5050509392505050565b600082601f83011261115c5761115b6110b7565b5b60026111698482856110e7565b91505092915050565b60006080828403121561118857611187610fa0565b5b6111926040611016565b905060006111a284828501611147565b60008301525060406111b684828501611147565b60208301525092915050565b600061010082840312156111d9576111d8610fa0565b5b6111e36060611016565b905060006111f384828501611067565b600083015250604061120784828501611172565b60208301525060c061121b84828501611067565b60408301525092915050565b600080610140838503121561123f5761123e610f9b565b5b600061124d858286016111c2565b92505061010061125f85828601611147565b9150509250929050565b60008115159050919050565b61127e81611269565b82525050565b60006020820190506112996000830184611275565b92915050565b7f4e487b7100000000000000000000000000000000000000000000000000000000600052603260045260246000fd5b7f4e487b7100000000000000000000000000000000000000000000000000000000600052601160045260246000fd5b600061130882611031565b91507fffffffffffffffffffffffffffffffffffffffffffffffffffffffffffffffff82141561133b5761133a6112ce565b5b600182019050919050565b600061135182611031565b915061135c83611031565b9250827fffffffffffffffffffffffffffffffffffffffffffffffffffffffffffffffff03821115611391576113906112ce565b5b828201905092915050565b7f4e487b7100000000000000000000000000000000000000000000000000000000600052601260045260246000fd5b60006113d682611031565b91506113e183611031565b9250826113f1576113f061139c565b5b828206905092915050565b600061140782611031565b915061141283611031565b925082821015611425576114246112ce565b5b828203905092915050565b600061143b82611031565b915061144683611031565b9250817fffffffffffffffffffffffffffffffffffffffffffffffffffffffffffffffff048311821515161561147f5761147e6112ce565b5b82820290509291505056fea2646970667358221220b430107eb73314f8efae9c58bcb1c2e103510ebc4fad1a803518a8c7c665937364736f6c63430008090033",
  "immutableReferences": {},
  "source": "import \"./verifier.sol\";\n\n// TODO define a contract call to the zokrates generated solidity contract <Verifier> or <renamedVerifier>\ncontract SquareVerifier is Verifier\n{\n\n}",
  "sourcePath": "/Users/linekertomazeli/Dev/capstone/eth-contracts/contracts/SquareVerifier.sol",
  "compiler": {
    "name": "solc",
    "version": "0.8.9+commit.e5eed63a.Emscripten.clang"
  },
  "schemaVersion": "3.4.3",
  "updatedAt": "2021-10-20T17:34:05.214Z",
  "networkType": "ethereum",
  "devdoc": {
    "kind": "dev",
    "methods": {},
    "version": 1
  },
  "userdoc": {
    "kind": "user",
    "methods": {},
    "version": 1
  }
}